:020000040800F2
:1000000000500020211300084D030008530300088E
:10001000590300085F0300086503000800000000A2
:100020000000000000000000000000006B0300085A
:100030007703000800000000830300088F03000816
:1000400069130008691300086913000869130008A0
:100050006913000869130008691300086913000890
:100060006913000869130008691300086913000880
:100070006913000869130008691300086913000870
:100080006913000869130008691300086913000860
:100090006913000869130008691300086913000850
:1000A0006913000869130008691300086913000840
:1000B0006913000869130008691300086913000830
:1000C0006913000869130008691300086913000820
:1000D0006913000869130008691300086913000810
:1000E0006913000869130008691300080000000084
:1000F0000000000000000000000000000000000000
:0C01000000000000000000005FF808F1A3
:10010C0010B5054C237833B9044B13B10448AFF345
:10011C0000800123237010BD0C00002000000000A3
:10012C00C413000808B5034B1BB103490348AFF3D4
:10013C00008008BD0000000010000020C41300085F
:10014C0080B500AF00F02AF900F009F800F08EF845
:10015C0000F040F84FF47A7000F082F9FAE780B5BD
:10016C0090B000AF07F1180328220021184601F0C7
:10017C001BF93B1D00221A605A609A60DA601A6102
:10018C000223BB610123BB621023FB6200237B6350
:10019C0007F11803184600F06BFA0346002B01D048
:1001AC0000F07AF80F237B600023BB600023FB6018
:1001BC0000233B6100237B613B1D0021184600F0AE
:1001CC00D7FC0346002B01D000F066F800BF403787
:1001DC00BD4680BD80B586B000AF07F10803002294
:1001EC001A605A609A60DA603B4600221A605A60C4
:1001FC001D4B4FF080421A601B4B00225A601A4B69
:10020C0000229A60184B4FF6FF72DA60164B0022F0
:10021C001A61154B00229A61134800F011FE034637
:10022C00002B01D000F038F84FF48053BB6007F17D
:10023C00080319460C4800F052FE0346002B01D06F
:10024C0000F02AF800233B6000237B603B461946F4
:10025C00054801F001F80346002B01D000F01CF812
:10026C0000BF1837BD4680BD2800002080B483B085
:10027C0000AF084B9B69074A43F004039361054B9D
:10028C009B6903F004037B607B6800BF0C37BD46A1
:10029C0080BC70470010024080B400AF72B600BF43
:1002AC00FEE7000080B485B000AF154B9B69144A83
:1002BC0043F001039361124B9B6903F00103BB6094
:1002CC00BB680F4BDB690E4A43F08053D3610C4B78
:1002DC00DB6903F080537B607B680A4B5B68FB60D7
:1002EC00FB6823F0E063FB60FB6843F00073FB608A
:1002FC00044AFB68536000BF1437BD4680BC70478E
:10030C00001002400000014080B485B000AF78605E
:10031C007B681B68B3F1804F0BD1084BDB69074A34
:10032C0043F00103D361054BDB6903F00103FB6070
:10033C00FB6800BF1437BD4680BC704700100240FC
:10034C0080B400AFFEE780B400AFFEE780B400AF2E
:10035C00FEE780B400AFFEE780B400AFFEE780B4E8
:10036C0000AF00BFBD4680BC704780B400AF00BF7B
:10037C00BD4680BC704780B400AF00BFBD4680BC9A
:10038C00704780B500AF00F04FF800BF80BD80B45F
:10039C0000AF00BFBD4680BC7047000080B500AF09
:1003AC00084B1B68074A43F010031360032000F04E
:1003BC002BF90F2000F008F8FFF774FF0023184604
:1003CC0080BD00BF0020024080B582B000AF7860D5
:1003DC00124B1A68124B1B7819464FF47A73B3FB05
:1003EC00F1F3B2FBF3F3184600F035F90346002B9A
:1003FC0001D001230EE07B680F2B0AD8002279680C
:10040C004FF0FF3000F00BF9064A7B6813600023B5
:10041C0000E0012318460837BD4680BD00000020CF
:10042C00080000200400002080B400AF054B1B78AE
:10043C001A46054B1B681344034A136000BFBD46A4
:10044C0080BC7047080000207000002080B400AF12
:10045C00024B1B681846BD4680BC704770000020DC
:10046C0080B584B000AF7860FFF7F0FFB8607B68B0
:10047C00FB60FB68B3F1FF3F05D00A4B1B781A46B3
:10048C00FB681344FB6000BFFFF7E0FF0246BB684C
:10049C00D31AFA689A42F7D800BF00BF1037BD468E
:1004AC0080BD00BF0800002080B485B000AF78602C
:1004BC007B6803F00703FB600C4BDB68BB60BA681E
:1004CC004FF6FF031340BB60FB681A02BB68134373
:1004DC0043F0BF6343F40033BB60044ABB68D36092
:1004EC0000BF1437BD4680BC704700BF00ED00E074
:1004FC0080B400AF044BDB681B0A03F007031846FB
:10050C00BD4680BC704700BF00ED00E080B483B0F6
:10051C0000AF03463960FB7197F90730002B0ADBFB
:10052C003B68DAB20C4997F907301201D2B20B448E
:10053C0083F800230AE03B68DAB20849FB7903F040
:10054C000F03043B1201D2B20B441A7600BF0C37D6
:10055C00BD4680BC704700BF00E100E000ED00E04C
:10056C0080B489B000AFF860B9607A60FB6803F0C2
:10057C000703FB61FB69C3F10703042B28BF0423AA
:10058C00BB61FB690433062B02D9FB69033B00E01A
:10059C0000237B614FF0FF32BB6902FA03F3DA43AD
:1005AC00BB681A407B699A404FF0FF317B6901FAB6
:1005BC0003F3D9437B680B40134318462437BD46DD
:1005CC0080BC704780B582B000AF78607B68013B1F
:1005DC00B3F1807F01D301230FE00A4A7B68013B12
:1005EC0053600F214FF0FF30FFF790FF054B0022B7
:1005FC009A60044B07221A60002318460837BD4640
:10060C0080BD00BF10E000E080B582B000AF786024
:10061C007868FFF749FF00BF0837BD4680BD80B53D
:10062C0086B000AF0346B9607A60FB7300237B6130
:10063C00FFF75EFF78617A68B9687869FFF790FF19
:10064C00024697F90F3011461846FFF75FFF00BFBF
:10065C001837BD4680BD80B582B000AF7860786831
:10066C00FFF7B0FF034618460837BD4680BD0000B3
:10067C0080B586B000AF78607B68002B01D1012378
:10068C006CE27B681B6803F00103002B00F0878091
:10069C00924B5B6803F00C03042B0CD08F4B5B6804
:1006AC0003F00C03082B12D18C4B5B6803F48033E2
:1006BC00B3F5803F0BD1894B1B6803F40033002B3F
:1006CC006CD07B685B68002B68D1012346E27B68A9
:1006DC005B68B3F5803F06D1804B1B687F4A43F4BF
:1006EC00803313602EE07B685B68002B0CD17B4B56
:1006FC001B687A4A23F480331360784B1B68774A63
:10070C0023F4802313601DE07B685B68B3F5A02F96
:10071C000CD1724B1B68714A43F4802313606F4BEE
:10072C001B686E4A43F4803313600BE06B4B1B6801
:10073C006A4A23F480331360684B1B68674A23F4BE
:10074C00802313607B685B68002B13D0FFF77EFE61
:10075C00386108E0FFF77AFE02463B69D31A642B36
:10076C0001D90323FAE15D4B1B6803F40033002B22
:10077C00F0D014E0FFF76AFE386108E0FFF766FE80
:10078C0002463B69D31A642B01D90323E6E1534B90
:10079C001B6803F40033002BF0D100E000BF7B6832
:1007AC001B6803F00203002B63D04C4B5B6803F017
:1007BC000C03002B0BD0494B5B6803F00C03082B8C
:1007CC001CD1464B5B6803F48033002B16D1434B92
:1007DC001B6803F00203002B05D07B681B69012BFF
:1007EC0001D00123BAE13D4B1B6823F0F8027B6872
:1007FC005B69DB00394913430B603AE07B681B698A
:10080C00002B20D0364B01221A60FFF71FFE3861F7
:10081C0008E0FFF71BFE02463B69D31A022B01D9F5
:10082C0003239BE12D4B1B6803F00203002BF0D03C
:10083C002A4B1B6823F0F8027B685B69DB002749B5
:10084C0013430B6015E0264B00221A60FFF7FEFDE8
:10085C00386108E0FFF7FAFD02463B69D31A022B18
:10086C0001D903237AE11D4B1B6803F00203002B13
:10087C00F0D17B681B6803F00803002B3AD07B682F
:10088C009B69002B19D0174B01221A60FFF7DEFD74
:10089C00386108E0FFF7DAFD02463B69D31A022BF8
:1008AC0001D903235AE10D4B5B6A03F00203002BC1
:1008BC00F0D0012000F0A6FA1CE00A4B00221A60CE
:1008CC00FFF7C4FD38610FE0FFF7C0FD02463B693E
:1008DC00D31A022B08D9032340E100BF00100240B9
:1008EC0000004242800442429E4B5B6A03F00203CA
:1008FC00002BE9D17B681B6803F00403002B00F08C
:10090C00A6800023FB75974BDB6903F08053002B0B
:10091C000DD1944BDB69934A43F08053D361914BD7
:10092C00DB6903F08053BB60BB680123FB758E4B06
:10093C001B6803F48073002B18D18B4B1B688A4AFD
:10094C0043F480731360FFF781FD386108E0FFF713
:10095C007DFD02463B69D31A642B01D90323FDE0CC
:10096C00814B1B6803F48073002BF0D07B68DB6831
:10097C00012B06D17B4B1B6A7A4A43F001031362AD
:10098C002DE07B68DB68002B0CD1764B1B6A754A1B
:10099C0023F001031362734B1B6A724A23F00403A6
:1009AC0013621CE07B68DB68052B0CD16D4B1B6A5A
:1009BC006C4A43F0040313626A4B1B6A694A43F0A6
:1009CC00010313620BE0674B1B6A664A23F00103B9
:1009DC001362644B1B6A634A23F0040313627B6843
:1009EC00DB68002B15D0FFF731FD38610AE0FFF70B
:1009FC002DFD02463B69D31A41F28832934201D94C
:100A0C000323ABE0574B1B6A03F00203002BEED021
:100A1C0014E0FFF71BFD38610AE0FFF717FD0246F3
:100A2C003B69D31A41F28832934201D9032395E0F2
:100A3C004C4B1B6A03F00203002BEED1FB7D012B08
:100A4C0005D1484BDB69474A23F08053D3617B685F
:100A5C00DB69002B00F08180424B5B6803F00C03D8
:100A6C00082B61D07B68DB69022B46D13F4B0022FF
:100A7C001A60FFF7EBFC386108E0FFF7E7FC024671
:100A8C003B69D31A022B01D9032367E0354B1B6852
:100A9C0003F00073002BF0D17B681B6AB3F5803F29
:100AAC0008D1304B5B6823F400327B689B682D497E
:100ABC0013434B602B4B5B6823F474127B68196AED
:100ACC007B685B6A0B43274913434B60274B01221E
:100ADC001A60FFF7BBFC386108E0FFF7B7FC024671
:100AEC003B69D31A022B01D9032337E01D4B1B683A
:100AFC0003F00073002BF0D02FE01C4B00221A6087
:100B0C00FFF7A4FC386108E0FFF7A0FC02463B6944
:100B1C00D31A022B01D9032320E0124B1B6803F0DC
:100B2C000073002BF0D118E07B68DB69012B01D13D
:100B3C00012313E00B4B5B68FB60FB6803F4803212
:100B4C007B681B6A9A4206D1FB6803F470127B68BF
:100B5C005B6A9A4201D0012300E000231846183743
:100B6C00BD4680BD00100240007000406000424253
:100B7C0080B584B000AF786039607B68002B01D100
:100B8C000123D0E06A4B1B6803F007033A689A42D2
:100B9C0010D9674B1B6823F0070265493B68134368
:100BAC000B60634B1B6803F007033A689A4201D051
:100BBC000123B8E07B681B6803F00203002B20D0F4
:100BCC007B681B6803F00403002B05D0594B5B6852
:100BDC00584A43F4E06353607B681B6803F00803D6
:100BEC00002B05D0534B5B68524A43F4605353605F
:100BFC00504B5B6823F0F0027B689B684D491343B4
:100C0C004B607B681B6803F00103002B40D07B68B2
:100C1C005B68012B07D1474B1B6803F40033002B97
:100C2C0015D101237FE07B685B68022B07D1414B18
:100C3C001B6803F00073002B09D1012373E03D4BBB
:100C4C001B6803F00203002B01D101236BE0394B2D
:100C5C005B6823F003027B685B68364913434B6087
:100C6C00FFF7F4FBF8600AE0FFF7F0FB0246FB68C5
:100C7C00D31A41F28832934201D9032353E02D4B0E
:100C8C005B6803F00C027B685B689B009A42EBD1BB
:100C9C00274B1B6803F007033A689A4210D2244B87
:100CAC001B6823F0070222493B6813430B60204B5F
:100CBC001B6803F007033A689A4201D0012332E023
:100CCC007B681B6803F00403002B08D0194B5B688E
:100CDC0023F4E0627B68DB68164913434B607B6846
:100CEC001B6803F00803002B09D0124B5B6823F43C
:100CFC0060527B681B69DB000E4913434B6000F0AC
:100D0C0021F802460B4B5B681B0903F00F030A49E1
:100D1C00CB5C22FA03F3094A1360094B1B68184693
:100D2C00FFF752FB002318461037BD4680BD00BFAD
:100D3C000020024000100240EC13000800000020CC
:100D4C000400002090B48AB000AF2A4B3C1D0FCB9E
:100D5C0084E80F0040F201233B800023FB61002359
:100D6C00BB6100237B6200237B6100233B62224B2F
:100D7C005B68FB61FB6903F00C03042B02D0082BAE
:100D8C0003D02DE01D4B3B622DE0FB699B0C03F067
:100D9C000F0307F12802134413F8243C7B61FB6911
:100DAC0003F48033002B13D0134B5B685B0C03F004
:100DBC00010307F12802134413F8283CBB617B693B
:100DCC000E4A02FB03F2BB69B2FBF3F37B6204E055
:100DDC007B690B4A02FB03F37B627B6A3B6202E09A
:100DEC00064B3B6200BF3B6A18462837BD4690BC99
:100DFC00704700BFDC1300080010024000127A009C
:100E0C0000093D0080B485B000AF78600A4B1B68C8
:100E1C000A4AA2FB03235B0A7A6802FB03F3FB601A
:100E2C0000BFFB685A1EFA60002BF9D100BF00BF4F
:100E3C001437BD4680BC704700000020D34D6210B3
:100E4C0080B582B000AF78607B68002B01D10123A4
:100E5C0041E07B6893F83D30DBB2002B06D17B6818
:100E6C00002283F83C207868FFF74EFA7B68022258
:100E7C0083F83D207B681A687B680433194610465A
:100E8C0000F0F2F87B68012283F846207B6801228F
:100E9C0083F83E207B68012283F83F207B68012287
:100EAC0083F840207B68012283F841207B68012273
:100EBC0083F842207B68012283F843207B6801225F
:100ECC0083F844207B68012283F845207B6801224B
:100EDC0083F83D20002318460837BD4680BD80B5F9
:100EEC0084B000AF786039607B6893F83C30012B9C
:100EFC0001D10223B3E07B68012283F83C207B689C
:100F0C00022283F83D207B681B689B68FB60FB68B2
:100F1C0023F07703FB60FB6823F47F43FB607B6863
:100F2C001B68FA689A603B681B68B3F5005F3ED09B
:100F3C00B3F5005F00F28780B3F5805F00F0858029
:100F4C00B3F5805F7FD8702B1AD0702B7BD8602BB9
:100F5C0050D0602B77D8502B3CD0502B73D8402BD3
:100F6C0058D0402B6FD8302B64D0302B6BD8202B23
:100F7C0060D0202B67D8002B5CD0102B5AD062E0AD
:100F8C007B6818683B6899683B685A683B68DB6803
:100F9C0000F043F97B681B689B68FB60FB6843F0BF
:100FAC007703FB607B681B68FA689A604EE07B688D
:100FBC0018683B6899683B685A683B68DB6800F0C6
:100FCC002CF97B681B689A687B681B6842F480422A
:100FDC009A603BE07B6818683B6859683B68DB6843
:100FEC001A4600F0A3F87B681B685021184600F0E5
:100FFC00FAF82BE07B6818683B6859683B68DB683B
:10100C001A4600F0C1F87B681B686021184600F096
:10101C00EAF81BE07B6818683B6859683B68DB683A
:10102C001A4600F083F87B681B684021184600F0D4
:10103C00DAF80BE07B681A683B681B6819461046A7
:10104C0000F0D1F802E000BF00E000BF7B68012295
:10105C0083F83D207B68002283F83C20002318464F
:10106C001037BD4680BD000080B485B000AF7860FD
:10107C0039607B681B68FB607B68294A93420BD004
:10108C007B68B3F1804F07D07B68264A934203D02C
:10109C007B68254A934208D1FB6823F07003FB6000
:1010AC003B685B68FA681343FB607B681C4A93429D
:1010BC000BD07B68B3F1804F07D07B68194A934201
:1010CC0003D07B68184A934208D1FB6823F4407321
:1010DC00FB603B68DB68FA681343FB60FB6823F03A
:1010EC0080023B685B691343FB607B68FA681A609B
:1010FC003B689A687B68DA623B681A687B689A621C
:10110C007B68074A934203D13B681A697B681A6370
:10111C007B6801225A6100BF1437BD4680BC704702
:10112C00002C0140000400400008004080B487B04F
:10113C0000AFF860B9607A60FB681B6A7B61FB6882
:10114C001B6A23F00102FB681A62FB689B693B6116
:10115C003B6923F0F0033B617B681B013A69134345
:10116C003B617B6923F00A037B617A69BB6813439B
:10117C007B61FB683A699A61FB687A691A6200BF05
:10118C001C37BD4680BC704780B487B000AFF86098
:10119C00B9607A60FB681B6A23F01002FB681A6264
:1011AC00FB689B697B61FB681B6A3B617B6923F471
:1011BC0070437B617B681B037A6913437B613B69DA
:1011CC0023F0A0033B61BB681B013A6913433B61ED
:1011DC00FB687A699A61FB683A691A6200BF1C372E
:1011EC00BD4680BC704780B485B000AF7860396074
:1011FC007B689B68FB60FB6823F07003FB603A68BC
:10120C00FB68134343F00703FB607B68FA689A6042
:10121C0000BF1437BD4680BC704780B487B000AFA8
:10122C00F860B9607A603B60FB689B687B617B69A6
:10123C0023F47F437B613B681A027B681A43BB68CB
:10124C0013437A6913437B61FB687A699A6000BF28
:10125C001C37BD4680BC704780B485B000AF786049
:10126C0039607B6893F83C30012B01D1022346E0B6
:10127C007B68012283F83C207B68022283F83D20A6
:10128C007B681B685B68FB607B681B689B68BB604A
:10129C00FB6823F07003FB603B681B68FA68134320
:1012AC00FB607B681B68FA685A607B681B68164A8F
:1012BC0093420ED07B681B68B3F1804F09D07B68DA
:1012CC001B68124A934204D07B681B68104A9342F5
:1012DC000CD1BB6823F08003BB603B685B68BA68C9
:1012EC001343BB607B681B68BA689A607B680122F9
:1012FC0083F83D207B68002283F83C2000231846AD
:10130C001437BD4680BC7047002C014000040040DF
:10131C00000800400C480D490D4A002302E0D45847
:10132C00C4500433C4188C42F9D30A4A0A4C002323
:10133C0001E013600432A242FBD3FFF728F800F05F
:10134C000FF8FEF7FDFE7047000000200C00002097
:10135C00041400080C00002074000020FEE70000BC
:10136C0070B500260C4D0D4C641BA410A64209D17F
:10137C0000F022F800260A4D0A4C641BA410A64269
:10138C0005D170BD55F8043B98470136EEE755F88A
:10139C00043B98470136F2E7FC130008FC130008E5
:1013AC00FC1300080014000803460244934200D1C9
:1013BC00704703F8011BF9E7F8B500BFF8BC08BC8F
:1013CC009E467047F8B500BFF8BC08BC9E467047F7
:1013DC0002030405060708090A0B0C0D0E0F10106A
:1013EC0000000000000000000102030406070809C9
:0413FC0031010008B3
:041400000D010008D2
:0C1404000024F4001000000001000000B3
:0400000508001321BB
:00000001FF
